{
  "_format": "hh-sol-artifact-1",
  "contractName": "LpNft",
  "sourceName": "contracts/LpNFT.sol",
  "abi": [
    {
      "inputs": [
        {
          "internalType": "address",
          "name": "sender",
          "type": "address"
        },
        {
          "internalType": "uint256",
          "name": "tokenId",
          "type": "uint256"
        },
        {
          "internalType": "address",
          "name": "owner",
          "type": "address"
        }
      ],
      "name": "ERC721IncorrectOwner",
      "type": "error"
    },
    {
      "inputs": [
        {
          "internalType": "address",
          "name": "operator",
          "type": "address"
        },
        {
          "internalType": "uint256",
          "name": "tokenId",
          "type": "uint256"
        }
      ],
      "name": "ERC721InsufficientApproval",
      "type": "error"
    },
    {
      "inputs": [
        {
          "internalType": "address",
          "name": "approver",
          "type": "address"
        }
      ],
      "name": "ERC721InvalidApprover",
      "type": "error"
    },
    {
      "inputs": [
        {
          "internalType": "address",
          "name": "operator",
          "type": "address"
        }
      ],
      "name": "ERC721InvalidOperator",
      "type": "error"
    },
    {
      "inputs": [
        {
          "internalType": "address",
          "name": "owner",
          "type": "address"
        }
      ],
      "name": "ERC721InvalidOwner",
      "type": "error"
    },
    {
      "inputs": [
        {
          "internalType": "address",
          "name": "receiver",
          "type": "address"
        }
      ],
      "name": "ERC721InvalidReceiver",
      "type": "error"
    },
    {
      "inputs": [
        {
          "internalType": "address",
          "name": "sender",
          "type": "address"
        }
      ],
      "name": "ERC721InvalidSender",
      "type": "error"
    },
    {
      "inputs": [
        {
          "internalType": "uint256",
          "name": "tokenId",
          "type": "uint256"
        }
      ],
      "name": "ERC721NonexistentToken",
      "type": "error"
    },
    {
      "inputs": [],
      "name": "InvalidInitialization",
      "type": "error"
    },
    {
      "inputs": [],
      "name": "NotInitializing",
      "type": "error"
    },
    {
      "inputs": [
        {
          "internalType": "address",
          "name": "owner",
          "type": "address"
        }
      ],
      "name": "OwnableInvalidOwner",
      "type": "error"
    },
    {
      "inputs": [
        {
          "internalType": "address",
          "name": "account",
          "type": "address"
        }
      ],
      "name": "OwnableUnauthorizedAccount",
      "type": "error"
    },
    {
      "anonymous": false,
      "inputs": [
        {
          "indexed": true,
          "internalType": "address",
          "name": "owner",
          "type": "address"
        },
        {
          "indexed": true,
          "internalType": "address",
          "name": "approved",
          "type": "address"
        },
        {
          "indexed": true,
          "internalType": "uint256",
          "name": "tokenId",
          "type": "uint256"
        }
      ],
      "name": "Approval",
      "type": "event"
    },
    {
      "anonymous": false,
      "inputs": [
        {
          "indexed": true,
          "internalType": "address",
          "name": "owner",
          "type": "address"
        },
        {
          "indexed": true,
          "internalType": "address",
          "name": "operator",
          "type": "address"
        },
        {
          "indexed": false,
          "internalType": "bool",
          "name": "approved",
          "type": "bool"
        }
      ],
      "name": "ApprovalForAll",
      "type": "event"
    },
    {
      "anonymous": false,
      "inputs": [
        {
          "indexed": false,
          "internalType": "uint64",
          "name": "version",
          "type": "uint64"
        }
      ],
      "name": "Initialized",
      "type": "event"
    },
    {
      "anonymous": false,
      "inputs": [
        {
          "indexed": true,
          "internalType": "address",
          "name": "previousOwner",
          "type": "address"
        },
        {
          "indexed": true,
          "internalType": "address",
          "name": "newOwner",
          "type": "address"
        }
      ],
      "name": "OwnershipTransferred",
      "type": "event"
    },
    {
      "anonymous": false,
      "inputs": [
        {
          "indexed": true,
          "internalType": "address",
          "name": "from",
          "type": "address"
        },
        {
          "indexed": true,
          "internalType": "address",
          "name": "to",
          "type": "address"
        },
        {
          "indexed": true,
          "internalType": "uint256",
          "name": "tokenId",
          "type": "uint256"
        }
      ],
      "name": "Transfer",
      "type": "event"
    },
    {
      "inputs": [
        {
          "internalType": "address",
          "name": "to",
          "type": "address"
        },
        {
          "internalType": "uint256",
          "name": "tokenId",
          "type": "uint256"
        }
      ],
      "name": "approve",
      "outputs": [],
      "stateMutability": "nonpayable",
      "type": "function"
    },
    {
      "inputs": [
        {
          "internalType": "address",
          "name": "owner",
          "type": "address"
        }
      ],
      "name": "balanceOf",
      "outputs": [
        {
          "internalType": "uint256",
          "name": "",
          "type": "uint256"
        }
      ],
      "stateMutability": "view",
      "type": "function"
    },
    {
      "inputs": [
        {
          "internalType": "uint256",
          "name": "tokenId",
          "type": "uint256"
        }
      ],
      "name": "burn",
      "outputs": [
        {
          "internalType": "bool",
          "name": "",
          "type": "bool"
        }
      ],
      "stateMutability": "nonpayable",
      "type": "function"
    },
    {
      "inputs": [],
      "name": "dao",
      "outputs": [
        {
          "internalType": "address",
          "name": "",
          "type": "address"
        }
      ],
      "stateMutability": "view",
      "type": "function"
    },
    {
      "inputs": [
        {
          "internalType": "uint256",
          "name": "_amount",
          "type": "uint256"
        }
      ],
      "name": "distribute",
      "outputs": [
        {
          "internalType": "bool",
          "name": "",
          "type": "bool"
        }
      ],
      "stateMutability": "nonpayable",
      "type": "function"
    },
    {
      "inputs": [
        {
          "internalType": "uint256",
          "name": "tokenId",
          "type": "uint256"
        }
      ],
      "name": "getApproved",
      "outputs": [
        {
          "internalType": "address",
          "name": "",
          "type": "address"
        }
      ],
      "stateMutability": "view",
      "type": "function"
    },
    {
      "inputs": [],
      "name": "initialize",
      "outputs": [],
      "stateMutability": "nonpayable",
      "type": "function"
    },
    {
      "inputs": [
        {
          "internalType": "address",
          "name": "owner",
          "type": "address"
        },
        {
          "internalType": "address",
          "name": "operator",
          "type": "address"
        }
      ],
      "name": "isApprovedForAll",
      "outputs": [
        {
          "internalType": "bool",
          "name": "",
          "type": "bool"
        }
      ],
      "stateMutability": "view",
      "type": "function"
    },
    {
      "inputs": [],
      "name": "lpManager",
      "outputs": [
        {
          "internalType": "address",
          "name": "",
          "type": "address"
        }
      ],
      "stateMutability": "view",
      "type": "function"
    },
    {
      "inputs": [
        {
          "internalType": "address",
          "name": "_to",
          "type": "address"
        },
        {
          "internalType": "uint256",
          "name": "tokenId",
          "type": "uint256"
        },
        {
          "internalType": "uint256",
          "name": "_usdcAmount",
          "type": "uint256"
        },
        {
          "internalType": "uint256",
          "name": "_ustcPlusAmount",
          "type": "uint256"
        }
      ],
      "name": "mint",
      "outputs": [],
      "stateMutability": "nonpayable",
      "type": "function"
    },
    {
      "inputs": [],
      "name": "name",
      "outputs": [
        {
          "internalType": "string",
          "name": "",
          "type": "string"
        }
      ],
      "stateMutability": "view",
      "type": "function"
    },
    {
      "inputs": [],
      "name": "owner",
      "outputs": [
        {
          "internalType": "address",
          "name": "",
          "type": "address"
        }
      ],
      "stateMutability": "view",
      "type": "function"
    },
    {
      "inputs": [
        {
          "internalType": "uint256",
          "name": "tokenId",
          "type": "uint256"
        }
      ],
      "name": "ownerOf",
      "outputs": [
        {
          "internalType": "address",
          "name": "",
          "type": "address"
        }
      ],
      "stateMutability": "view",
      "type": "function"
    },
    {
      "inputs": [
        {
          "internalType": "uint256",
          "name": "",
          "type": "uint256"
        }
      ],
      "name": "paramsOf",
      "outputs": [
        {
          "internalType": "uint256",
          "name": "usdcAmount",
          "type": "uint256"
        },
        {
          "internalType": "uint256",
          "name": "ustcPlusAmount",
          "type": "uint256"
        },
        {
          "internalType": "uint256",
          "name": "usdcTaken",
          "type": "uint256"
        },
        {
          "internalType": "uint256",
          "name": "ustcPlusTaken",
          "type": "uint256"
        },
        {
          "internalType": "uint256",
          "name": "startTime",
          "type": "uint256"
        }
      ],
      "stateMutability": "view",
      "type": "function"
    },
    {
      "inputs": [
        {
          "internalType": "uint256",
          "name": "tokenId",
          "type": "uint256"
        },
        {
          "internalType": "uint256",
          "name": "percent",
          "type": "uint256"
        }
      ],
      "name": "redeem",
      "outputs": [
        {
          "internalType": "bool",
          "name": "",
          "type": "bool"
        }
      ],
      "stateMutability": "nonpayable",
      "type": "function"
    },
    {
      "inputs": [],
      "name": "renounceOwnership",
      "outputs": [],
      "stateMutability": "nonpayable",
      "type": "function"
    },
    {
      "inputs": [
        {
          "internalType": "address",
          "name": "from",
          "type": "address"
        },
        {
          "internalType": "address",
          "name": "to",
          "type": "address"
        },
        {
          "internalType": "uint256",
          "name": "tokenId",
          "type": "uint256"
        }
      ],
      "name": "safeTransferFrom",
      "outputs": [],
      "stateMutability": "nonpayable",
      "type": "function"
    },
    {
      "inputs": [
        {
          "internalType": "address",
          "name": "from",
          "type": "address"
        },
        {
          "internalType": "address",
          "name": "to",
          "type": "address"
        },
        {
          "internalType": "uint256",
          "name": "tokenId",
          "type": "uint256"
        },
        {
          "internalType": "bytes",
          "name": "data",
          "type": "bytes"
        }
      ],
      "name": "safeTransferFrom",
      "outputs": [],
      "stateMutability": "nonpayable",
      "type": "function"
    },
    {
      "inputs": [
        {
          "internalType": "address",
          "name": "operator",
          "type": "address"
        },
        {
          "internalType": "bool",
          "name": "approved",
          "type": "bool"
        }
      ],
      "name": "setApprovalForAll",
      "outputs": [],
      "stateMutability": "nonpayable",
      "type": "function"
    },
    {
      "inputs": [
        {
          "internalType": "address",
          "name": "_dao",
          "type": "address"
        }
      ],
      "name": "setDao",
      "outputs": [],
      "stateMutability": "nonpayable",
      "type": "function"
    },
    {
      "inputs": [
        {
          "internalType": "address",
          "name": "_lpManager",
          "type": "address"
        }
      ],
      "name": "setLpManager",
      "outputs": [],
      "stateMutability": "nonpayable",
      "type": "function"
    },
    {
      "inputs": [
        {
          "internalType": "address",
          "name": "_usdc",
          "type": "address"
        }
      ],
      "name": "setUsdc",
      "outputs": [],
      "stateMutability": "nonpayable",
      "type": "function"
    },
    {
      "inputs": [
        {
          "internalType": "address",
          "name": "_ustcPlus",
          "type": "address"
        }
      ],
      "name": "setUstcPlus",
      "outputs": [],
      "stateMutability": "nonpayable",
      "type": "function"
    },
    {
      "inputs": [
        {
          "internalType": "uint256",
          "name": "tokenId",
          "type": "uint256"
        }
      ],
      "name": "slashCurrentAmount",
      "outputs": [
        {
          "internalType": "uint256",
          "name": "",
          "type": "uint256"
        }
      ],
      "stateMutability": "view",
      "type": "function"
    },
    {
      "inputs": [
        {
          "internalType": "uint256",
          "name": "tokenId",
          "type": "uint256"
        }
      ],
      "name": "slashEndTime",
      "outputs": [
        {
          "internalType": "uint256",
          "name": "",
          "type": "uint256"
        }
      ],
      "stateMutability": "view",
      "type": "function"
    },
    {
      "inputs": [
        {
          "internalType": "bytes4",
          "name": "interfaceId",
          "type": "bytes4"
        }
      ],
      "name": "supportsInterface",
      "outputs": [
        {
          "internalType": "bool",
          "name": "",
          "type": "bool"
        }
      ],
      "stateMutability": "view",
      "type": "function"
    },
    {
      "inputs": [],
      "name": "symbol",
      "outputs": [
        {
          "internalType": "string",
          "name": "",
          "type": "string"
        }
      ],
      "stateMutability": "view",
      "type": "function"
    },
    {
      "inputs": [
        {
          "internalType": "uint256",
          "name": "tokenId",
          "type": "uint256"
        }
      ],
      "name": "tokenURI",
      "outputs": [
        {
          "internalType": "string",
          "name": "",
          "type": "string"
        }
      ],
      "stateMutability": "view",
      "type": "function"
    },
    {
      "inputs": [
        {
          "internalType": "address",
          "name": "from",
          "type": "address"
        },
        {
          "internalType": "address",
          "name": "to",
          "type": "address"
        },
        {
          "internalType": "uint256",
          "name": "tokenId",
          "type": "uint256"
        }
      ],
      "name": "transferFrom",
      "outputs": [],
      "stateMutability": "nonpayable",
      "type": "function"
    },
    {
      "inputs": [
        {
          "internalType": "address",
          "name": "newOwner",
          "type": "address"
        }
      ],
      "name": "transferOwnership",
      "outputs": [],
      "stateMutability": "nonpayable",
      "type": "function"
    },
    {
      "inputs": [],
      "name": "usdc",
      "outputs": [
        {
          "internalType": "contract IERC20",
          "name": "",
          "type": "address"
        }
      ],
      "stateMutability": "view",
      "type": "function"
    },
    {
      "inputs": [],
      "name": "ustcPlus",
      "outputs": [
        {
          "internalType": "contract IUstcPlus",
          "name": "",
          "type": "address"
        }
      ],
      "stateMutability": "view",
      "type": "function"
    }
  ],
  "bytecode": "0x608060405234801561001057600080fd5b5061209c806100206000396000f3fe608060405234801561001057600080fd5b50600436106101f05760003560e01c80638b8119811161010f578063b88d4fde116100a2578063de95edc011610071578063de95edc014610498578063e7e7fa6c146104ab578063e985e9c5146104be578063f2fde38b146104d157600080fd5b8063b88d4fde1461044c578063b906f15a1461045f578063c87b56dd14610472578063cb1468791461048557600080fd5b8063a22cb465116100de578063a22cb465146103ad578063a39bf78c146103c0578063a647e8ec14610426578063b018ba261461043957600080fd5b80638b8119811461034e5780638da5cb5b1461036157806391c05b0b1461039157806395d89b41146103a557600080fd5b806342842e0e1161018757806370a082311161015657806370a082311461030a578063715018a61461032b5780637cbc2373146103335780638129fc1c1461034657600080fd5b806342842e0e146102be57806342966c68146102d15780636352211e146102e45780636637b882146102f757600080fd5b806323b872dd116101c357806323b872dd1461027257806328789a56146102855780633e413bee146102985780634162169f146102ab57600080fd5b806301ffc9a7146101f557806306fdde031461021d578063081812fc14610232578063095ea7b31461025d575b600080fd5b610208610203366004611aa5565b6104e4565b60405190151581526020015b60405180910390f35b610225610536565b6040516102149190611b12565b610245610240366004611b25565b6105da565b6040516001600160a01b039091168152602001610214565b61027061026b366004611b5a565b6105ef565b005b610270610280366004611b84565b6105fe565b610270610293366004611bc0565b61068e565b600154610245906001600160a01b031681565b600054610245906001600160a01b031681565b6102706102cc366004611b84565b6106e1565b6102086102df366004611b25565b610701565b6102456102f2366004611b25565b61070e565b610270610305366004611bc0565b610719565b61031d610318366004611bc0565b61076c565b604051908152602001610214565b6102706107c8565b610208610341366004611bdb565b6107dc565b610270610c52565b61027061035c366004611bc0565b610da9565b7f9016d09d72d40fdae2fd8ceac6b6234c7706214fd39c1cd1e609a0528c199300546001600160a01b0316610245565b61020861039f366004611b25565b50600090565b610225610dfc565b6102706103bb366004611c0b565b610e3b565b6103fe6103ce366004611b25565b60046020819052600091825260409091208054600182015460028301546003840154939094015491939092909185565b604080519586526020860194909452928401919091526060830152608082015260a001610214565b610270610434366004611c42565b610e46565b600254610245906001600160a01b031681565b61027061045a366004611c91565b610ef1565b600354610245906001600160a01b031681565b610225610480366004611b25565b610f08565b610270610493366004611bc0565b610f7d565b61031d6104a6366004611b25565b610fd0565b61031d6104b9366004611b25565b61107f565b6102086104cc366004611d6d565b6110e1565b6102706104df366004611bc0565b61112e565b60006001600160e01b031982166380ac58cd60e01b148061051557506001600160e01b03198216635b5e139f60e01b145b8061053057506301ffc9a760e01b6001600160e01b03198316145b92915050565b600080516020612047833981519152805460609190819061055690611da0565b80601f016020809104026020016040519081016040528092919081815260200182805461058290611da0565b80156105cf5780601f106105a4576101008083540402835291602001916105cf565b820191906000526020600020905b8154815290600101906020018083116105b257829003601f168201915b505050505091505090565b60006105e58261116c565b50610530826111a4565b6105fa8282336111de565b5050565b6001600160a01b03821661062d57604051633250574960e11b8152600060048201526024015b60405180910390fd5b600061063a8383336111eb565b9050836001600160a01b0316816001600160a01b031614610688576040516364283d7b60e01b81526001600160a01b0380861660048301526024820184905282166044820152606401610624565b50505050565b6106966112f5565b6002546001600160a01b0316156106bf5760405162461bcd60e51b815260040161062490611dda565b600280546001600160a01b0319166001600160a01b0392909216919091179055565b6106fc83838360405180602001604052806000815250610ef1565b505050565b60006105308260646107dc565b60006105308261116c565b6107216112f5565b6000546001600160a01b03161561074a5760405162461bcd60e51b815260040161062490611dda565b600080546001600160a01b0319166001600160a01b0392909216919091179055565b60006000805160206120478339815191526001600160a01b0383166107a7576040516322718ad960e21b815260006004820152602401610624565b6001600160a01b039092166000908152600390920160205250604090205490565b6107d06112f5565b6107da6000611350565b565b6000336107e8846111a4565b6001600160a01b0316148061080d5750336108028461070e565b6001600160a01b0316145b6108495760405162461bcd60e51b815260206004820152600d60248201526c3737903832b936b4b9b9b4b7b760991b6044820152606401610624565b60006108548461107f565b116108915760405162461bcd60e51b815260206004820152600d60248201526c34b73b30b634b2103a37b5b2b760991b6044820152606401610624565b6000821180156108a2575060648211155b6108df5760405162461bcd60e51b815260206004820152600e60248201526d6f6e652076616c7565206f6e6c7960901b6044820152606401610624565b6000838152600460208181526040808420815160a08101835281548152600182015493810193909352600281015491830191909152600381015460608301529091015460808201529061093185610fd0565b9050600061093f8286611e15565b604084015184516109509190611e28565b61095a9190611e51565b905060006109688387611e15565b8460600151856020015161097c9190611e28565b6109869190611e51565b905060006109948484611e65565b905060006109a28584611e65565b905060006109b08986611e65565b905060006109be8a86611e65565b90508615610abb5760015460005460405163a9059cbb60e01b81526001600160a01b0391821660048201526024810187905291169063a9059cbb906044016020604051808303816000875af1158015610a1b573d6000803e3d6000fd5b505050506040513d601f19601f82011682018060405250810190610a3f9190611e7c565b506002546000546040516370015bbf60e11b81526001600160a01b0391821660048201526024810186905291169063e002b77e906044016020604051808303816000875af1158015610a95573d6000803e3d6000fd5b505050506040513d601f19601f82011682018060405250810190610ab99190611e7c565b505b60015460405163a9059cbb60e01b8152336004820152602481018490526001600160a01b039091169063a9059cbb906044016020604051808303816000875af1158015610b0c573d6000803e3d6000fd5b505050506040513d601f19601f82011682018060405250810190610b309190611e7c565b506002546040516370015bbf60e11b8152336004820152602481018390526001600160a01b039091169063e002b77e906044016020604051808303816000875af1158015610b82573d6000803e3d6000fd5b505050506040513d601f19601f82011682018060405250810190610ba69190611e7c565b50610bb18285611e15565b60008c81526004602052604081206002018054909190610bd2908490611e15565b90915550610be290508184611e15565b60008c81526004602052604081206003018054909190610c03908490611e15565b909155505060648a1480610c33575060008b815260046020526040902060028101549054610c319190611e28565b155b15610c4157610c418b6113c1565b5060019a9950505050505050505050565b7ff0c57e16840df040f15088dc2f81fe391c3923bec73e23a9662efc9c229c6a008054600160401b810460ff16159067ffffffffffffffff16600081158015610c985750825b905060008267ffffffffffffffff166001148015610cb55750303b155b905081158015610cc3575080155b15610ce15760405163f92ee8a960e01b815260040160405180910390fd5b845467ffffffffffffffff191660011785558315610d0b57845460ff60401b1916600160401b1785555b610d53604051806040016040528060088152602001670555354432b204c560c41b815250604051806040016040528060068152602001650555354434c560d41b8152506113fc565b610d5c3361140e565b8315610da257845460ff60401b19168555604051600181527fc7f505b2f371ae2175ee4913f4499e1f2633a7b5936321eed1cdaeb6115181d29060200160405180910390a15b5050505050565b610db16112f5565b6003546001600160a01b031615610dda5760405162461bcd60e51b815260040161062490611dda565b600380546001600160a01b0319166001600160a01b0392909216919091179055565b7f80bb2b638cc20bc4d0a60d66940f3ab4a00c1d7b313497ca82fb0b4ab007930180546060916000805160206120478339815191529161055690611da0565b6105fa33838361141f565b6003546001600160a01b03163314610e8e5760405162461bcd60e51b815260206004820152600b60248201526a3737ba1036b0b730b3b2b960a91b6044820152606401610624565b610e9884846114d0565b6040805160a0810182529283526020808401928352600084830181815260608601828152426080880190815297835260049384905293909120945185559251600185015591516002840155516003830155915191015550565b610efc8484846105fe565b610688848484846114ea565b6060610f138261116c565b506000610f2b60408051602081019091526000815290565b90506000815111610f4b5760405180602001604052806000815250610f76565b80610f558461160c565b604051602001610f66929190611e99565b6040516020818303038152906040525b9392505050565b610f856112f5565b6001546001600160a01b031615610fae5760405162461bcd60e51b815260040161062490611dda565b600180546001600160a01b0319166001600160a01b0392909216919091179055565b600080610fdc8361107f565b905080600003610fef5750600092915050565b6000838152600460208181526040808420815160a0810183528154815260018201549381019390935260028101549183019190915260038101546060830152909101546080820181905290919062278d009061104b9042611e28565b6110559190611ec8565b905060188082111561106957506000611076565b6110738282611e28565b90505b95945050505050565b600081815260046020819052604082200154810361109f57506000919050565b60006110aa8361070e565b6001600160a01b0316036110c057506000919050565b60008281526004602081905260409091200154610530906303c32280611e15565b6001600160a01b0391821660009081527f80bb2b638cc20bc4d0a60d66940f3ab4a00c1d7b313497ca82fb0b4ab00793056020908152604080832093909416825291909152205460ff1690565b6111366112f5565b6001600160a01b03811661116057604051631e4fbdf760e01b815260006004820152602401610624565b61116981611350565b50565b6000806111788361169f565b90506001600160a01b03811661053057604051637e27328960e01b815260048101849052602401610624565b60009081527f80bb2b638cc20bc4d0a60d66940f3ab4a00c1d7b313497ca82fb0b4ab007930460205260409020546001600160a01b031690565b6106fc83838360016116d9565b6000600080516020612047833981519152816112068561169f565b90506001600160a01b03841615611222576112228185876117ef565b6001600160a01b038116156112625761123f6000866000806116d9565b6001600160a01b0381166000908152600383016020526040902080546000190190555b6001600160a01b03861615611293576001600160a01b03861660009081526003830160205260409020805460010190555b600085815260028301602052604080822080546001600160a01b0319166001600160a01b038a811691821790925591518893918516917fddf252ad1be2c89b69c2b068fc378daa952ba7f163c4a11628f55a4df523b3ef91a495945050505050565b336113277f9016d09d72d40fdae2fd8ceac6b6234c7706214fd39c1cd1e609a0528c199300546001600160a01b031690565b6001600160a01b0316146107da5760405163118cdaa760e01b8152336004820152602401610624565b7f9016d09d72d40fdae2fd8ceac6b6234c7706214fd39c1cd1e609a0528c19930080546001600160a01b031981166001600160a01b03848116918217845560405192169182907f8be0079c531659141344cd1fd0a4f28419497f9722a3daafe3b4186f6b6457e090600090a3505050565b60006113d060008360006111eb565b90506001600160a01b0381166105fa57604051637e27328960e01b815260048101839052602401610624565b611404611853565b6105fa828261189c565b611416611853565b611169816118cd565b6000805160206120478339815191526001600160a01b03831661146057604051630b61174360e31b81526001600160a01b0384166004820152602401610624565b6001600160a01b038481166000818152600584016020908152604080832094881680845294825291829020805460ff191687151590811790915591519182527f17307eab39ab6107e8899845ad3d59bd9653f200f220920489ca2b5937696c31910160405180910390a350505050565b6105fa8282604051806020016040528060008152506118d5565b6001600160a01b0383163b1561068857604051630a85bd0160e11b81526001600160a01b0384169063150b7a029061152c903390889087908790600401611edc565b6020604051808303816000875af1925050508015611567575060408051601f3d908101601f1916820190925261156491810190611f19565b60015b6115d0573d808015611595576040519150601f19603f3d011682016040523d82523d6000602084013e61159a565b606091505b5080516000036115c857604051633250574960e11b81526001600160a01b0385166004820152602401610624565b805181602001fd5b6001600160e01b03198116630a85bd0160e11b14610da257604051633250574960e11b81526001600160a01b0385166004820152602401610624565b60606000611619836118ec565b600101905060008167ffffffffffffffff81111561163957611639611c7b565b6040519080825280601f01601f191660200182016040528015611663576020820181803683370190505b5090508181016020015b600019016f181899199a1a9b1b9c1cb0b131b232b360811b600a86061a8153600a850494508461166d57509392505050565b60009081527f80bb2b638cc20bc4d0a60d66940f3ab4a00c1d7b313497ca82fb0b4ab007930260205260409020546001600160a01b031690565b60008051602061204783398151915281806116fc57506001600160a01b03831615155b156117be57600061170c8561116c565b90506001600160a01b038416158015906117385750836001600160a01b0316816001600160a01b031614155b801561174b575061174981856110e1565b155b156117745760405163a9fbf51f60e01b81526001600160a01b0385166004820152602401610624565b82156117bc5784866001600160a01b0316826001600160a01b03167f8c5be1e5ebec7d5bd14f71427d1e84f3dd0314c0f7b2291e5b200ac8c7c3b92560405160405180910390a45b505b600093845260040160205250506040902080546001600160a01b0319166001600160a01b0392909216919091179055565b6117fa8383836119c4565b6106fc576001600160a01b03831661182857604051637e27328960e01b815260048101829052602401610624565b60405163177e802f60e01b81526001600160a01b038316600482015260248101829052604401610624565b7ff0c57e16840df040f15088dc2f81fe391c3923bec73e23a9662efc9c229c6a0054600160401b900460ff166107da57604051631afcd79f60e31b815260040160405180910390fd5b6118a4611853565b600080516020612047833981519152806118be8482611f86565b50600181016106888382611f86565b611136611853565b6118df8383611a2a565b6106fc60008484846114ea565b60008072184f03e93ff9f4daa797ed6e38ed64bf6a1f0160401b831061192b5772184f03e93ff9f4daa797ed6e38ed64bf6a1f0160401b830492506040015b6d04ee2d6d415b85acef81000000008310611957576d04ee2d6d415b85acef8100000000830492506020015b662386f26fc10000831061197557662386f26fc10000830492506010015b6305f5e100831061198d576305f5e100830492506008015b61271083106119a157612710830492506004015b606483106119b3576064830492506002015b600a83106105305760010192915050565b60006001600160a01b03831615801590611a225750826001600160a01b0316846001600160a01b031614806119fe57506119fe84846110e1565b80611a225750826001600160a01b0316611a17836111a4565b6001600160a01b0316145b949350505050565b6001600160a01b038216611a5457604051633250574960e11b815260006004820152602401610624565b6000611a62838360006111eb565b90506001600160a01b038116156106fc576040516339e3563760e11b815260006004820152602401610624565b6001600160e01b03198116811461116957600080fd5b600060208284031215611ab757600080fd5b8135610f7681611a8f565b60005b83811015611add578181015183820152602001611ac5565b50506000910152565b60008151808452611afe816020860160208601611ac2565b601f01601f19169290920160200192915050565b602081526000610f766020830184611ae6565b600060208284031215611b3757600080fd5b5035919050565b80356001600160a01b0381168114611b5557600080fd5b919050565b60008060408385031215611b6d57600080fd5b611b7683611b3e565b946020939093013593505050565b600080600060608486031215611b9957600080fd5b611ba284611b3e565b9250611bb060208501611b3e565b9150604084013590509250925092565b600060208284031215611bd257600080fd5b610f7682611b3e565b60008060408385031215611bee57600080fd5b50508035926020909101359150565b801515811461116957600080fd5b60008060408385031215611c1e57600080fd5b611c2783611b3e565b91506020830135611c3781611bfd565b809150509250929050565b60008060008060808587031215611c5857600080fd5b611c6185611b3e565b966020860135965060408601359560600135945092505050565b634e487b7160e01b600052604160045260246000fd5b60008060008060808587031215611ca757600080fd5b611cb085611b3e565b9350611cbe60208601611b3e565b925060408501359150606085013567ffffffffffffffff80821115611ce257600080fd5b818701915087601f830112611cf657600080fd5b813581811115611d0857611d08611c7b565b604051601f8201601f19908116603f01168101908382118183101715611d3057611d30611c7b565b816040528281528a6020848701011115611d4957600080fd5b82602086016020830137600060208483010152809550505050505092959194509250565b60008060408385031215611d8057600080fd5b611d8983611b3e565b9150611d9760208401611b3e565b90509250929050565b600181811c90821680611db457607f821691505b602082108103611dd457634e487b7160e01b600052602260045260246000fd5b50919050565b6020808252600b908201526a185b1c9958591e481cd95d60aa1b604082015260600190565b634e487b7160e01b600052601160045260246000fd5b8082018082111561053057610530611dff565b8181038181111561053057610530611dff565b634e487b7160e01b600052601260045260246000fd5b600082611e6057611e60611e3b565b500490565b808202811582820484141761053057610530611dff565b600060208284031215611e8e57600080fd5b8151610f7681611bfd565b60008351611eab818460208801611ac2565b835190830190611ebf818360208801611ac2565b01949350505050565b600082611ed757611ed7611e3b565b500690565b6001600160a01b0385811682528416602082015260408101839052608060608201819052600090611f0f90830184611ae6565b9695505050505050565b600060208284031215611f2b57600080fd5b8151610f7681611a8f565b601f8211156106fc576000816000526020600020601f850160051c81016020861015611f5f5750805b601f850160051c820191505b81811015611f7e57828155600101611f6b565b505050505050565b815167ffffffffffffffff811115611fa057611fa0611c7b565b611fb481611fae8454611da0565b84611f36565b602080601f831160018114611fe95760008415611fd15750858301515b600019600386901b1c1916600185901b178555611f7e565b600085815260208120601f198616915b8281101561201857888601518255948401946001909101908401611ff9565b50858210156120365787850151600019600388901b60f8161c191681555b5050505050600190811b0190555056fe80bb2b638cc20bc4d0a60d66940f3ab4a00c1d7b313497ca82fb0b4ab0079300a2646970667358221220b6d876ec381ed3d7520aefe24f143c4f0d47f78dd2dc543356cb1b898d12909564736f6c63430008180033",
  "linkReferences": {},
  "deployedLinkReferences": {}
}